:10000300E4F508F50975A0C07FC87E0012007F756E
:10001300A0F97FC87E0012007F75A0A47FC87E0070
:1000230012007F75A0B07FC87E0012007F75A09973
:100033007FC87E0012007F75A0927FC87E001200E9
:100043007F75A0827FC87E0012007F75A0F87FC8ED
:100053007E0012007F75A0807FC87E0012007F752E
:10006300A0907FC87E0012007F0509E50970020594
:0C00730008C39409E5089400408B8084C9
:10007F00E4FDFCC3ED9FEC9E5015E4FBFA0BBB00B7
:0F008F00010AEB647B4A70F50DBD00010C80E4A3
:01009E00223F
:0300000002009F5C
:0C009F00787FE4F6D8FD758109020003AB
:00000001FF
