:10000300E4F580F508E58025E04401F5807FC87EAE
:100013000012005B0508E508C3940840E8E4F5080E
:10002300E580C313F5807FC87E0012005B0508E5F9
:0600330008C3940840EA36
:0100390022A4
:10003A00E4F5087580AA7FC87E0012005B758055BA
:10004A007FC87E0012005B0508E508C3946440E39C
:01005A002283
:0800870012000312003A80F898
:10005B00E4FDFCC3ED9FEC9E5015E4FBFA0BBB00DB
:0F006B00010AEB647B4A70F50DBD00010C80E4C7
:01007A002263
:0300000002007B80
:0C007B00787FE4F6D8FD7581080200874C
:00000001FF
