:0B04DA004E4849455420444F3A200092
:1002FB001203687BFF7A0479DA7D017F0112044EC9
:10030B001204AE8F08AC08E412020B7B0C7A027954
:10031B00FB783F1200FBE4FBFAF9783F12000A125C
:10032B00023F8F09E50975F064842430FB7D0B7F58
:10033B0001120485E50975F06484E5F075F00A8413
:10034B002430FF1204BEE50975F00A84E5F0243071
:0D035B00FF1204BE7FF47E011203EE80A3AA
:0F04AE00C2B0C2B2D2B220B3FDC2B1AFA0D2B1C0
:0104BD00221C
:1003EE00E4FDFCC3ED9FEC9E5015E4FBFA0BBB0045
:0F03FE00010AEB647B4A70F50DBD00010C80E431
:01040D0022CC
:10049C00EF339287EFA2E69286A2E59285A2E492D0
:0204AC008422A8
:07046D0012049CD281C28140
:10047400EFA2E39287A2E29286A2E192851392848C
:010484002255
:0704E500AE071FEE70FA22C2
:10036800C280C2817F147E001203EE7F03120474E0
:10037800D281C2817F057E001203EE7F03120474CE
:10038800D281C2817F641204E57F03120474D28192
:10039800C2817F017E001203EE7F02120474D281B3
:1003A800C2811F7E001203EE7F2812040E7F0C12FA
:0C03B800040E7F0112040E7F0602040EEA
:10040E00AE07C28012046DD281C281EF24FE60035A
:10041E000470077F027E000203EE7F251204E522A0
:1004BE00AE07D28012046DD281C2817F290204E57B
:020485008B0AE0
:10048700BF01047F8080027FC0ED142FFF12040E8E
:05049700AF0A0204BEE3
:06042E008B0D8A0E890F00
:10043400E4FDAB0DAA0EA90F8D827583001202C0D4
:09044400FF60061204BE0D80E900
:01044D00228C
:06044E008B0A8A0B890CE9
:10045400BF01047F8080027FC0ED142FFF12040EC1
:09046400AB0AAA0BA90C02042E3C
:0603C4008B108A11891262
:1003CA00EF75F008A42440FF12040EE4FDAB10AA56
:1003DA0011A9128D827583001202C0FF1204BE0D8C
:0303EA00BD08EA61
:0103ED0022ED
:100003000202ABE86480F8E933E83360110460F07E
:10001300ED33EC337009E8FCE9FDEAFEEBFF220463
:1000230060DED3EB9FEA9EE99DE8C2E78CF0C2F75E
:1000330095F0400CE8CCF8E9CDF9EACEFAEBCFFB2A
:1000430012027685D0F05804700320D5B3E804700B
:10005300075002B2D50202B592D5EC0460F7E4CCA6
:10006300C0E0C398F8603B94186008400DD0E0FBF3
:1000730002028DE4FBFAC9FC8028E830E406E4C9F7
:10008300FBE4CAFCE830E305E4C9CACBFCE8540747
:100093006010F8C3E913F9EA13FAEB13FBEC13FC52
:1000A300D8F130F52FC3E49CFCEF9BFFEE9AFEEDF5
:1000B30099FDD0E0FBEF4E4D4C701222DB030202A0
:1000C300B2EC2CFCEF33FFEE33FEED33FDED30E706
:1000D300EB02028DEF2BFFEE3AFEED39FDD0E0FB94
:1000E30050130BBB00030202B5ED13FDEE13FEEF3D
:0800F30013FFEC13FC02028D67
:1000FB00EC4D6011E8497017ED33EC3304600DE4FF
:10010B00FCFFFEFD22E933E8330470F80202AB1268
:10011B00027658046009E4CC248150062850090269
:10012B0002B52840030202B2C0E0EB4A7044B9802A
:10013B0006D0E0FB0202A1EF4E701CBD8008EBFF66
:10014B00EAFEE9FD80EBE98DF0A4FEE5F00201E4A7
:10015B00E9CDF9EAFEEBFFEF89F0A4FCE5F0CE89DF
:10016B00F0A42EFFE435F0CD89F0A42DFEE435F09C
:10017B008067EF4E7005BD80D780C3EF8BF0A4ACCA
:10018B00F0EE8BF0A42CFCE435F0F8EF8AF0A42C05
:10019B00E5F038FCE433CB8DF0A42CFCE5F03BF818
:1001AB00EE8AF0A42CFCE5F038F8E433CF89F0A408
:1001BB002CFCE5F038CF3400CE89F0A42FFFE5F00E
:1001CB003EFEE433C98DF0A42EFEE5F039CD8AF066
:1001DB00A42FFFE5F03EFEE43DFD33D0E0FB5007DE
:1001EB000BBB000F0202B5EC2CFCEF33FFEE33FE22
:0601FB00ED33FD02028D50
:1002010075F020800E75F010800575F0087D007E78
:10021100007F003392D530D5031202EDEC3340104C
:10022100EF33FFEE33FEED33FDEC33FCD5F0ED2281
:0E023100E5F0247EA2D513CC92E7CDCEFF22BD
:10023F00EDD2E7CD33EC3392D524814006E4FFFEB7
:10024F00FDFC22FCE4CFCECDCC24E0501174FF8016
:10025F00EDC3CC13CCCD13CDCE13CECF13CF0470B3
:07026F00F030D5DE0202EDC4
:10027600E9D2E7C933E833F892D5EDD2E7CD33ECCE
:0702860033FC5002B2D52247
:10028D00EC30E7100FBF000C0EBE00080DBD0004D2
:10029D000BEB6014A2D5EB13FCED92E7FD2274FF7E
:1002AD00FCFDFEFF22E480F8A2D574FF13FC7D80D7
:0302BD00E480EFEB
:030000000204CE29
:0C04CE00787FE4F6D8FD7581120202FB75
:1002C000BB010CE58229F582E5833AF583E02250F3
:1002D00006E92582F8E622BBFE06E92582F8E2223D
:0D02E000E58229F582E5833AF583E4932257
:0E02ED00C3E49FFFE49EFEE49DFDE49CFC2222
:00000001FF
