:1000B600E4FDFCC3ED9FEC9E5015E4FBFA0BBB0080
:0F00C600010AEB647B4A70F50DBD00010C80E46C
:0100D5002208
:10016400EF3392A7EFA2E692A6A2E592A5A2E492AB
:02017400A422C3
:07013500120164D2A2C2A274
:10013C00EFA2E392A7A2E292A6A2E192A51392A447
:01014C002290
:0701A000AE071FEE70FA220A
:10000300C2A0C2A27F147E001200B67F0312013C7D
:10001300D2A2C2A27F057E001200B67F0312013C6A
:10002300D2A2C2A27F641201A07F0312013CD2A21A
:10003300C2A27F017E001200B67F0212013CD2A24F
:10004300C2A21F7E001200B67F281200D67F0C12B8
:0C00530000D67F011200D67F060200D606
:1000D600AE07C2A0120135D2A2C2A2EF24FE60036F
:1000E6000470077F027E000200B67F251201A0225F
:10017600AE07D2A0120135D2A2C2A27F290201A0E7
:02014D008B1114
:10014F00BF01047F8080027FC0ED142FFF1200D605
:05015F00AF1102017662
:0600F6008B088A09890A4B
:1000FC00E4FDAB08AA09A90A8D8275830012005F82
:09010C00FF60061201760D80E986
:0101150022C7
:060116008B0B8A0C890D21
:10011C00BF01047F8080027FC0ED142FFF1200D638
:09012C00AB0BAA0CA90D0200F6B0
:06008C008B0E8A0F8910A3
:10009200EF75F008A42440FF1200D6E4FDAB0EAACF
:1000A2000FA9108D8275830012005FFF1201760D79
:0300B200BD08EA9C
:0100B5002228
:0E0186001200037B417D027F0112014D80FEBD
:0300000002019466
:0C019400787FE4F6D8FD75811102018629
:10005F00BB010CE58229F582E5833AF583E0225056
:10006F0006E92582F8E622BBFE06E92582F8E222A0
:0D007F00E58229F582E5833AF583E49322BA
:00000001FF
