:04006D007FF47E019D
:10007100E4FDFCC3ED9FEC9E5015E4FBFA0BBB00C5
:0F008100010AEB647B4A70F50DBD00010C80E4B1
:01009000224D
:10000300E4F508F509E4F58012006D7580FF120030
:10001300710509E50970020508C39405E508940014
:1000230040E3E4F508F50975805512006D7580AA63
:100033001200710509E50970020508C39405E50876
:10004300940040E3E4F508F509C3E5099405E508E0
:10005300940050AC75800F12006D7580F012007122
:0A0063000509E50970E3050880DFD8
:030000000200916A
:0C009100787FE4F6D8FD758109020003B9
:00000001FF
