:0C011C0048656C6C6F20776F726C64009B
:1000DC00C2A08FB0C2A1D2A1EFD3940250047F0270
:0A00EC0080027F017E0012007F22D7
:0F010D00D2A08FB0C2A1D2A17F017E0002007FDD
:0200F6008B116C
:1000F800BF01047F8080027FC0EF2D14FF1200DC57
:05010800AF1102010D22
:06005C008B0D8A0E890FD6
:10006200E4F510AB0DAA0EA90F851082758300125C
:0C0072000003FF600712010D051080E77D
:01007E00225F
:06009F008B0A8A0B890C9C
:1000A500BF01047F8080027FC0EF2D14FF1200DCAA
:0900B500AB0AAA0BA90C02005CC5
:100030007F301200DC7F057E0012007F7F301200CF
:10004000DC7F017E0012007F7F301200DC7F3812DF
:0C00500000DC7F011200DC7F0C0200DCF1
:1000BE001200307BFF7A01791C7D027F0212009FB5
:0E00CE007F181200DC7F327E0012007F80F26D
:10007F00E4FDFCC3ED9FEC9E5015E4FBFA0BBB00B7
:0F008F00010AEB647B4A70F50DBD00010C80E4A3
:01009E00223F
:03000000020128D2
:0C012800787FE4F6D8FD7581110200BE5E
:10000300BB010CE58229F582E5833AF583E02250B2
:1000130006E92582F8E622BBFE06E92582F8E222FC
:0D002300E58229F582E5833AF583E4932216
:00000001FF
