:0300030001080AE7
:10009A005389F0438901758C3C758AB0D2A9D2AFD5
:1000AA00D28CE4F5907F64FE1200D3E4F509E59062
:1000BA0025E0F5904390017F647E001200D3050984
:0900CA00E509C3940840E780D960
:03000B000200F3FD
:1000F300758C3C758AB0D5080675080A63A0FF3273
:1000D300E4FDFCC3ED9FEC9E5015E4FBFA0BBB0063
:0F00E300010AEB647B4A70F50DBD00010C80E44F
:0100F20022EB
:0300000002000EED
:0C000E00787FE4F6D8FD758109020055EA
:10001A0002009AE493A3F8E493A34003F68001F262
:10002A0008DFF48029E493A3F85407240CC8C333E7
:10003A00C4540F4420C8834004F456800146F6DFB6
:10004A00E4800B0102040810204080900003E47E43
:10005A00019360BCA3FF543F30E509541FFEE493AB
:10006A00A360010ECF54C025E060A840B8E493A372
:10007A00FAE493A3F8E493A3C8C582C8CAC583CA9D
:10008A00F0A3C8C582C8CAC583CADFE9DEE780BE55
:0100060000F9
:00000001FF
