:02012800C10014
:1000D800E4F50AF50B7F0A7E0012010820900A2039
:1000E8000009D2007E007F0122C200050BE50B70DB
:0F00F80002050AC39432E50A940040D9E4FEFFE2
:0101070022D5
:10008F00E4F5A0F508F5091200D8EF4E701463A03F
:10009F00FF0509E50970020508C39414E5089400EB
:1000AF0040E575A055E4F508F509C3E5099414E595
:1000BF0008940050CB1200D8EF4E70C463A0FF0518
:0900CF0009E50970E5050880E16E
:10010800E4FDFCC3ED9FEC9E5015E4FBFA0BBB002D
:0F011800010AEB647B4A70F50DBD00010C80E419
:0101270022B5
:03000000020003F8
:0C000300787FE4F6D8FD75812002004AE9
:10000F0002008FE493A3F8E493A34003F68001F278
:10001F0008DFF48029E493A3F85407240CC8C333F2
:10002F00C4540F4420C8834004F456800146F6DFC1
:10003F00E4800B0102040810204080900128E47E28
:10004F00019360BCA3FF543F30E509541FFEE493B6
:10005F00A360010ECF54C025E060A840B8E493A37D
:10006F00FAE493A3F8E493A3C8C582C8CAC583CAA8
:10007F00F0A3C8C582C8CAC583CADFE9DEE780BE60
:01012A0000D4
:00000001FF
