:100061007F027808E4F608DFFC7B007A0079087DDE
:10007100021200037F2C7E011200C97F02780874EE
:10008100FFF608DFFC7F027B007A0079087D02120F
:0B00910000037F2C7E011200C980C517
:1000C900E4FDFCC3ED9FEC9E5015E4FBFA0BBB006D
:0F00D900010AEB647B4A70F50DBD00010C80E459
:0100E80022F5
:080003008B0A8A0B890C8D0D9C
:10000B00E4F50EE50EC3950D5047AB0A7C00E50CED
:10001B00250DF9EC350BFAC3E9950EF9EA9400FAC4
:10002B0090FFFF12009CFDE4FB74807E00A8030888
:10003B008006CEA2E713CE13D8F8FFEDF582EF556D
:10004B008224FF92A1C2A0D2A00BBB08DC050E80BC
:05005B00B2C2A2D2A216
:01006000227D
:030000000200E912
:0C00E900787FE4F6D8FD75810E020061FE
:10009C00BB010CE58229F582E5833AF583E0225019
:1000AC0006E92582F8E622BBFE06E92582F8E22263
:0D00BC00E58229F582E5833AF583E493227D
:00000001FF
