:10018E00D2A05389F0438901D2A9D2AF8E0E8F0F20
:10019E00E50EC313F50AE50F13F50BC3E50F950B2B
:1001AE00F509E50E950AF508AE0AAF0BAB07AA06E0
:1001BE00E4C39BFFE49AFE74019400FDE49400FCFA
:1001CE0078081200D18F10E4C39BFFE48F11AE08A4
:1001DE00AF09AB07AA06C39BFFE49AFE7401940015
:1001EE00FDE49400FC78081200D18F0CE4C39BFF51
:0901FE008F0D85108C85118A22F9
:03029300D28C22E8
:03029600C28C22F5
:10011200EF7005C2A0C2A922BF6405D2A0C2A92263
:10012200AC0EAD0F7E001200E5E47B64FAF9F81222
:10013200003F8E0A8F0BC3E50F950BF509E50E956F
:100142000AF508AB07AA06E4C39BFFE49AFE740112
:100152009400FDE49400FC78081200D18F10E4C3EF
:100162009BFFE48F11AE08AF09AB07AA06C39BFF42
:10017200E49AFE74019400FDE49400FC78081200F5
:0C018200D18F0CE4C39BFF8F0DD2A9228B
:10020700E4F512F513F514F5157FE87E0312018E58
:10021700E4FF1201121202937F647E00120267E567
:10022700134512701774022515F515E43514F514E6
:10023700E515646445147004F514F515E5136401B8
:100247004512701574FE2515F51574FF3514F51450
:1002570045157005F514751564AF1512011280B8B0
:10026700E4FDFCC3ED9FEC9E5015E4FBFA0BBB00CD
:0F027700010AEB647B4A70F50DBD00010C80E4B9
:010286002255
:0300000002028772
:0C028700787FE4F6D8FD758115020207AF
:1000030075F008758200EF2FFFEE33FECD33CDCCB4
:1000130033CCC58233C5829BED9AEC99E582984037
:100023000CF582EE9BFEED9AFDEC99FC0FD5F0D614
:10003300E4CEFBE4CDFAE4CCF9A88222B800C1B93E
:100043000059BA002DEC8BF084CFCECDFCE5F0CB7C
:10005300F97818EF2FFFEE33FEED33FDEC33FCEBB5
:1000630033FB10D703994004EB99FB0FD8E5E4F970
:10007300FA227818EF2FFFEE33FEED33FDEC33FC5D
:10008300C933C910D7059BE99A4007EC9BFCE99A51
:10009300F90FD8E0E4C9FAE4CCFB2275F010EF2F96
:1000A300FFEE33FEED33FDCC33CCC833C810D70796
:1000B3009BEC9AE899400AED9BFDEC9AFCE899F8D1
:0E00C3000FD5F0DAE4CDFBE4CCFAE4C8F92264
:1000D100E86010ECA2E713FCED13FDEE13FEEF1345
:0400E100FFD8F02232
:1000E500EC8EF0A4CCC5F0CCCDF8EFA4CEC5F02DA8
:1000F500FDE43CFCE8A42EC8C5F03DFDE43CFCEF66
:0D010500A4FFE5F028FEE43DFDE43CFC22F3
:00000001FF
